{
  "contractName": "ProofOfExistence2",
  "abi": [
    {
      "constant": false,
      "inputs": [
        {
          "internalType": "bytes32",
          "name": "proof",
          "type": "bytes32"
        }
      ],
      "name": "storeProof",
      "outputs": [],
      "payable": false,
      "stateMutability": "nonpayable",
      "type": "function"
    },
    {
      "constant": false,
      "inputs": [
        {
          "internalType": "string",
          "name": "document",
          "type": "string"
        }
      ],
      "name": "notarize",
      "outputs": [],
      "payable": false,
      "stateMutability": "nonpayable",
      "type": "function"
    },
    {
      "constant": true,
      "inputs": [
        {
          "internalType": "string",
          "name": "document",
          "type": "string"
        }
      ],
      "name": "proofFor",
      "outputs": [
        {
          "internalType": "bytes32",
          "name": "",
          "type": "bytes32"
        }
      ],
      "payable": false,
      "stateMutability": "pure",
      "type": "function"
    },
    {
      "constant": true,
      "inputs": [
        {
          "internalType": "string",
          "name": "document",
          "type": "string"
        }
      ],
      "name": "checkDocument",
      "outputs": [
        {
          "internalType": "bool",
          "name": "",
          "type": "bool"
        }
      ],
      "payable": false,
      "stateMutability": "view",
      "type": "function"
    }
  ],
  "bytecode": "0x608060405234801561001057600080fd5b506104e3806100206000396000f3fe608060405234801561001057600080fd5b506004361061004c5760003560e01c806353fb9233146100515780637183616c146101245780638952877b1461019d578063f6c1acdf146101cb575b600080fd5b61010a6004803603602081101561006757600080fd5b810190808035906020019064010000000081111561008457600080fd5b82018360208201111561009657600080fd5b803590602001918460018302840111640100000000831117156100b857600080fd5b91908080601f016020809104026020016040519081016040528093929190818152602001838380828437600081840152601f19601f82011690508083019250505050505050919291929050505061029a565b604051808215151515815260200191505060405180910390f35b61019b6004803603602081101561013a57600080fd5b810190808035906020019064010000000081111561015757600080fd5b82018360208201111561016957600080fd5b8035906020019184600183028401116401000000008311171561018b57600080fd5b90919293919293905050506102b9565b005b6101c9600480360360208110156101b357600080fd5b8101908080359060200190929190505050610318565b005b610284600480360360208110156101e157600080fd5b81019080803590602001906401000000008111156101fe57600080fd5b82018360208201111561021057600080fd5b8035906020019184600183028401116401000000008311171561023257600080fd5b91908080601f016020809104026020016040519081016040528093929190818152602001838380828437600081840152601f19601f820116905080830192505050505050509192919290505050610347565b6040518082815260200191505060405180910390f35b6000806102a683610347565b90506102b181610458565b915050919050565b600061030883838080601f016020809104026020016040519081016040528093929190818152602001838380828437600081840152601f19601f82011690508083019250505050505050610347565b905061031381610318565b505050565b600081908060018154018082558091505090600182039060005260206000200160009091929091909150555050565b60006002826040516020018082805190602001908083835b60208310610382578051825260208201915060208101905060208303925061035f565b6001836020036101000a0380198251168184511680821785525050505050509050019150506040516020818303038152906040526040518082805190602001908083835b602083106103e957805182526020820191506020810190506020830392506103c6565b6001836020036101000a038019825116818451168082178552505050505050905001915050602060405180830381855afa15801561042b573d6000803e3d6000fd5b5050506040513d602081101561044057600080fd5b81019080805190602001909291905050509050919050565b600080600090505b6000805490508110156104a357826000828154811061047b57fe5b906000526020600020015414156104965760019150506104a9565b8080600101915050610460565b50600090505b91905056fea265627a7a723158208983e21279c403f7a4ec231be0d5434301c772fc52d18011538d8fdc5506c0ca64736f6c63430005100032",
  "source": "pragma solidity ^0.5.0;\r\n\r\ncontract ProofOfExistence2 {\r\n\r\n  // state\r\n  bytes32[] private proofs;\r\n\r\n  // store a proof of existence in the contract state\r\n  function storeProof(bytes32 proof) \r\n    public \r\n  {\r\n    proofs.push(proof);\r\n  }\r\n\r\n  // calculate and store the proof for a document\r\n  function notarize(string calldata document) \r\n    external \r\n  {\r\n    bytes32 proof = proofFor(document);\r\n    storeProof(proof);\r\n  }\r\n\r\n  // helper function to get a document's sha256\r\n  function proofFor(string memory document) \r\n    pure \r\n    public \r\n    returns (bytes32) \r\n  {\r\n    return sha256(abi.encodePacked(document));\r\n  }\r\n\r\n  // check if a document has been notarized\r\n  function checkDocument(string memory document) \r\n    public \r\n    view \r\n    returns (bool) \r\n  {\r\n    bytes32 proof = proofFor(document);\r\n    return hasProof(proof);\r\n  }\r\n\r\n  // returns true if proof is stored\r\n  function hasProof(bytes32 proof) \r\n    internal \r\n    view \r\n    returns (bool) \r\n  {\r\n    for (uint256 i = 0; i < proofs.length; i++) {\r\n      if (proofs[i] == proof) {\r\n        return true;\r\n      }\r\n    }\r\n    return false;\r\n  }\r\n}",
  "sourcePath": "C:/Users/admin/Desktop/Consensys/7.6 Writing a Smart Contract (Proof of Existence)/contracts/ProofOfExistence2.sol",
  "compiler": {
    "name": "solc",
    "version": "0.5.16+commit.9c3226ce.Emscripten.clang"
  },
  "schemaVersion": "3.2.3",
  "updatedAt": "2020-09-27T05:22:58.805Z",
  "networkType": "ethereum",
  "devdoc": {
    "methods": {}
  },
  "userdoc": {
    "methods": {}
  }
}